:020000040800F2
:1000000018070020210300089D2000089F200008F9
:10001000A3200008A7200008AB2000080000000073
:10002000000000000000000000000000AF200008F9
:10003000B120000800000000B3200008B52000082F
:100040003B0300083B0300083B0300083B03000898
:100050003B0300083B0300083B0300083B03000888
:100060003B0300083B0300083B0300083B03000878
:100070003B0300083B0300083B0300083B03000868
:100080003B0300083B0300083B0300083B03000858
:100090003B0300083B0300083B0300083B03000848
:1000A0003B0300083B0300083B0300083B03000838
:1000B000B72000083B0300083B0300083B0300088F
:1000C0003B0300083B0300083B0300083B03000818
:1000D0003B0300083B0300081B2100083B0300080A
:1000E0003B0300083B0300083B0300083B030008F8
:1000F0003B0300083B0300083B0300083B030008E8
:100100003B0300083B0300083B0300083B030008D7
:100110003B0300083B0300083B0300083B030008C7
:100120003B0300083B0300083B0300083B030008B7
:10013000DFF80CD005F0D8FB00480047FD2600088A
:10014000180700200CB50020019000906B48006853
:1001500040F480306949086000BF6848006800F4D6
:10016000003000900198401C0190009818B9019847
:10017000B0F5A06FF1D16148006810F4003F02D0E3
:100180000120009001E0002000900098012842D159
:100190005B48006840F01000594908600846006854
:1001A00020F0030008600846006840F00200086084
:1001B00052484068514948600846406848600846CF
:1001C000406840F4806048600846406820F47C1035
:1001D00048600846406840F4E810486008460068F7
:1001E00040F08070086000BF4448006810F0007F55
:1001F000FAD04248406820F0030040494860084671
:10020000406840F00200486000BF3C48406800F091
:100210000C000828F9D10CBD10B5FFF793FF10BDF5
:1002200010B53648006840F00100344908600846BF
:1002300040683449084031494860084600683249FE
:1002400008402E4908600846006820F480200860B5
:100250000846406820F4FE0048604FF41F008860A4
:10026000FFF7DAFF4FF000602849086010BD10B5B5
:10027000002100200022214B5B6803F00C0121B11A
:10028000042906D0082928D107E0214B214C2360FE
:1002900027E01F4B1F4C236023E0184B5B6803F4DF
:1002A0007010164B5B6803F48032022303EB90401E
:1002B00022B9194B4343174C23600DE00F4B5B6889
:1002C00013F4003F04D0144B4343124C236003E06B
:1002D0000F4B43430F4C236003E00D4B0D4C236049
:1002E00000BF00BF054B5B68C3F303130B4CE15C1D
:1002F000084B1B68CB40074C236010BD0010024028
:10030000002002400000FFF8FFFFF6FE08ED00E0CD
:1003100000127A000000002000093D0004000020C7
:100320000648804706480047FEE7FEE7FEE7FEE78F
:10033000FEE7FEE7FEE7FEE7FEE7FEE72102000834
:100340003101000831490143314A1160704770B5ED
:10035000002100230F22C4780CB32D4C246804F430
:10036000E064C4F5E064210AC1F10403CA404478A2
:1003700004FA03F18478144021430901254C0678DE
:10038000A155047804F01F050124AC4005786D11D7
:100390004FF0E02606EB8505C5F8004109E004783A
:1003A00004F01F050124AC401B4D0678761145F87A
:1003B000264070BD194A0A400243154B1B1F1A60A4
:1003C000704739B1124A121D12680243104B1B1DAF
:1003D0001A6006E00E4A121D126882430C4B1B1D68
:1003E0001A607047042808D14FF0E021096941F0F4
:1003F00004014FF0E022116107E04FF0E0210969AC
:1004000021F004014FF0E022116170470000FA056D
:100410000CED00E000E400E080E100E080FFFF1F61
:1004200010B50446CA48844208D10121042000F0D6
:1004300047FB0021042000F043FB46E0C54884420E
:1004400008D10121082000F03BFB0021082000F02A
:1004500037FB3AE0C048844208D10121102000F067
:100460002FFB0021102000F02BFB2EE0BB48844224
:1004700008D10121202000F023FB0021202000F0E2
:100480001FFB22E0B648844208D10121402000F041
:1004900017FB0021402000F013FB16E0B148844216
:1004A00008D10121802000F00BFB0021802000F00A
:1004B00007FB0AE0AC48844207D10121801500F017
:1004C000FFFA0021A01500F0FBFA10BD10B50121C4
:1004D000084600F0F5FA0021012000F0F1FA10BD05
:1004E0002DE9F041024600250026002000230024CB
:1004F000002791F803C00CF00F0591F803C01CF021
:10050000100F03D091F802C04CEA050591F800C025
:10051000BCF1000F31D0146800202BE04FF0010C2B
:100520000CFA00F3B1F800C00CEA03069E4220D199
:1005300083004FF00F0C0CFA03F7BC4305FA03FCE1
:100540004CEA040491F803C0BCF1280F06D14FF027
:10055000010C0CFA00FCC2F814C00AE091F803C0C8
:10056000BCF1480F05D14FF0010C0CFA00FCC2F8A9
:1005700010C0401C0828D1D31460B1F800C0BCF1F1
:10058000FF0F34DD546800202EE000F1080C4FF01E
:10059000010808FA0CF3B1F800C00CEA03069E4209
:1005A00021D183004FF00F0C0CFA03F7BC4305FA7E
:1005B00003FC4CEA040491F803C0BCF1280F05D1F8
:1005C00000F1080C08FA0CF8C2F8148091F803C086
:1005D000BCF1480F07D100F1080C4FF0010808FAF0
:1005E0000CF8C2F81080401C0828CED35460BDE837
:1005F000F0814FF6FF710180022181700421C170EA
:1006000070470246002093680B4201D0012000E0B1
:10061000002070470146886880B27047024600207B
:10062000D3680B4201D0012000E000207047014652
:10063000C86880B2704701617047416170470AB174
:10064000016100E041617047C16070474FF4803242
:100650000A438261816182618269826970470246D0
:100660000020424B18684FF68073184040EA021091
:1006700008433E4B186070473D49C8617047F0B56C
:100680000A46002300240021002500F00046B6F1B0
:10069000004F02D1354EF16901E0344E7168C0F36C
:1006A000034583B200F44016B6F5401F08D121F08F
:1006B00070612E4E766826F070662C4F7E6012E0D8
:1006C00000F48016B6F5801F06D1032606FA05F45D
:1006D000A14341F0706106E0460D360103FA06F6CB
:1006E000B14341F0706122B1460D360103FA06F6BE
:1006F000314300F00046B6F1004F02D11B4EF161CC
:1007000001E01A4E7160F0BD30B500228B071C0F5E
:100710000F2303FA04F2154B08338C1053F82430DE
:100720009343124C08348D1044F8253023468C1026
:1007300053F824308C07240F00FA04F423430B4CA5
:1007400008348D1044F8253030BD0A4908607047E0
:1007500000080140000C014000100140001401405D
:1007600000180140001C0140002001400000014031
:1007700000002042DC0020420E49086070470D490D
:10078000486070470B49886070474AF6AA200949BB
:10079000086070474CF6CC40064908607047014637
:1007A0000020044AD2680A4201D0012000E0002063
:1007B0007047000000300040DD48006840F0010054
:1007C000DB49086008464068DA490840D849486073
:1007D00008460068D8490840D549086008460068BE
:1007E00020F4802008600846406820F4FE0048603D
:1007F0004FF41F0088607047CD49096821F48031AB
:10080000CB4A11601146096821F480211160B0F5CE
:10081000803F03D0B0F5802F0ED106E0C4490968AF
:1008200041F48031C24A116007E0C149096841F4CE
:10083000A021BF4A116000E000BF00BF704710B5A3
:1008400001460022002300204A11012A02D1B84C9F
:10085000236806E0022A02D1B54C236A01E0B44CB9
:10086000636A01F01F02012494401C4201D0012060
:1008700000E0002010BD38B50020009000240025C5
:1008800000BF3120FFF7DBFF05460098401C0090B9
:100890000098B0F5A06F01D0002DF2D03120FFF705
:1008A000CEFF08B1012400E00024204638BD0146F7
:1008B00000209F4A106820F0F80040EAC100106054
:1008C00070479E490860704702460020984B586860
:1008D00020F47C1042EA01031843954B586070479E
:1008E00096490866704701460020914A506820F0FA
:1008F00003000843506070478D48406800F00C00CA
:100900007047014600208A4A506820F0F0000843F2
:100910005060704701460020854A506820F4E0602E
:1009200008435060704701460020814A506820F417
:10093000605040EAC1005060704729B17C4A527A49
:1009400002437B4B5A7204E0794A527A8243784BD5
:100950005A7270477A490860704701460020744A0D
:10096000506820F440400843506070470021754AA9
:1009700011706F4A82F82010012802D0042808D193
:1009800003E001216F4A117004E005216D4A1170E6
:1009900000E000BF00BF70476B49086070476449C2
:1009A000096A0143624A1162704767494439086025
:1009B000704730B500210022002400235C4D6D6893
:1009C00005F00C0121B1042905D0082923D105E047
:1009D0005E4D056022E05D4D05601FE0544D6D6881
:1009E00005F47012524D6D6805F48034022505EB54
:1009F00092421CB9564D554305600BE04C4D6D6855
:100A000015F4003F03D0524D5543056002E04F4DB1
:100A10005543056002E04D4D056000BF00BF444DE9
:100A20006D6805F0F00109094A4D6B5C0568DD4011
:100A300045603F4D6D6805F4E061090A454D6B5C0A
:100A40004568DD4085603A4D6D6805F46051C90A1E
:100A5000404D6B5C4568DD40C560354D6D6805F403
:100A60004041890B3C4D6B5CC568B5FBF3F50561F6
:100A700030BD29B12E4A526902432D4B5A6104E020
:100A80002B4A526982432A4B5A61704729B1284A3E
:100A900092690243264B9A6104E0254A9269824397
:100AA000234B9A61704729B1214AD2690243204BF6
:100AB000DA6104E01E4AD26982431D4BDA61704755
:100AC00029B11B4AD2680243194BDA6004E0184A84
:100AD000D2688243164BDA60704729B1144A126912
:100AE0000243134B1A6104E0114A12698243104B0E
:100AF0001A61704714494039086070470F49C8644B
:100B000070470B49C87170470948406A40F08070CF
:100B100007494862704701460020054A92680A4228
:100B200001D0012000E00020704701498872704721
:100B3000001002400000FFF8FFFFF6FE00004242F6
:100B4000D8004242201002408004424200127A0043
:100B500000093D00140000202400002010B50446C8
:100B6000FE48844208D10121C014FFF7A9FF0021EB
:100B7000E014FFF7A5FFC4E0B4F1804F08D10121D4
:100B80000846FFF7AAFF00210120FFF7A6FFB8E003
:100B9000F348844208D101210220FFF79EFF002183
:100BA0000220FFF79AFFACE0EE48844208D1012111
:100BB0000420FFF792FF00210420FFF78EFFA0E042
:100BC000E948844208D101210820FFF786FF00216F
:100BD0000820FFF782FF94E0E448844208D1012115
:100BE0001020FFF77AFF00211020FFF776FF88E042
:100BF000DF48844208D101212020FFF76EFF002149
:100C00002020FFF76AFF7CE0DA48844208D1012106
:100C10004014FFF755FF00216014FFF751FF70E00B
:100C2000D548844209D10121C804FFF749FF0021BA
:100C30004FF40020FFF744FF63E0D048844209D11D
:100C400001210805FFF73CFF00214FF48010FFF75A
:100C500037FF56E0CA48844209D101214805FFF711
:100C60002FFF00214FF40010FFF72AFF49E0C5488D
:100C7000844208D101214020FFF72FFF00214020AE
:100C8000FFF72BFF3DE0C048844208D101218020BE
:100C9000FFF723FF00218020FFF71FFF31E0BB4853
:100CA000844208D101218015FFF717FF0021A0150C
:100CB000FFF713FF25E0B648844209D1012108045B
:100CC000FFF7FEFE00214FF48030FFF7F9FE18E039
:100CD000B048844209D101214804FFF7F1FE002108
:100CE0004FF40030FFF7ECFE0BE0AB48844208D134
:100CF00001218804FFF7E4FE00214FF48020FFF774
:100D0000DFFE10BD00220288944B98420ED0994B12
:100D100098420BD0B0F1804F08D0914B984205D04B
:100D2000904B984202D0904B984204D14FF68F736B
:100D30001A404B881A438D4B984207D08C4B9842EF
:100D400004D04FF6FF431A40CB881A4302808B88A9
:100D500083850B880385814B98420BD0854B984245
:100D600008D08B4B984205D08A4B984202D08A4BD0
:100D7000984201D10B7A038601238382704770B5B4
:100D8000002400220023058C4FF6FE7635400584B2
:100D9000028C8388048B4FF68F752C40B51E2C4037
:100DA0000D882C43751E2A400D892A434D882A43FD
:100DB0006A4DA8420BD06F4DA84208D0744DA8428E
:100DC00005D0744DA84202D0734DA84213D14FF6FE
:100DD000F7752A404D892A434FF6FB752A408D88C6
:100DE0002A434FF6FF652B404FF6FF552B408D8968
:100DF0002B43CD892B4383800483CD888586028451
:100E000070BD70B5002400220023058C4FF6EF76EC
:100E100035400584028C8388048B48F6FF752C408E
:100E20004FF6FF452C400D884FF6FF7606EA052564
:100E30002C434FF6DF752A400D8906EA05152A4333
:100E40004D8806EA05152A43444DA84202D0494D73
:100E5000A8421DD14FF67F752A404D894FF6FF7687
:100E600006EA05152A434FF6BF752A408D8806EA23
:100E700005152A434FF6FF352B404FF2FF752B40E7
:100E80008D8906EA85052B43CD8906EA85052B4326
:100E900083800483CD880587028470BD70B50024EB
:100EA00000220023058C4FF6FF6635400584028C36
:100EB0008388848B4FF68F752C404FF6FC752C4041
:100EC0000D882C434FF6FF552A400D894FF6FF76CB
:100ED00006EA05252A434D8806EA05252A431F4DC3
:100EE000A84202D0234DA8421DD14FF2FF752A40DF
:100EF0004D894FF6FF7606EA05252A434FF6FF3562
:100F00002A408D8806EA05252A434EF6FF752B40B8
:100F10004DF6FF752B408D8906EA05152B43CD89CB
:100F200006EA05152B4383808483CD888587028458
:100F300070BD70B5002200230024058C4EF6FF76AC
:100F400035400584038C8488828B48F6FF752A40DF
:100F50004FF6FF452A400D8820E00000002C01409C
:100F60000004004000080040000C00400010004059
:100F70000014004000340140004C0140005001408A
:100F80000054014000180040001C004000200040B8
:100F90000040014000440140004801404FF6FF7608
:100FA00006EA05252A434DF6FF752B400D8906EA12
:100FB00005352B434D8806EA05352B43FA4DA842EB
:100FC00002D0FA4DA84208D14BF6FF752C408D890E
:100FD0004FF6FF7606EA85152C4384808283CD8800
:100FE000A0F84050038470BD828B4FF2FF331A404B
:100FF0008283828B4FF6FF7303EA01231A438283B5
:101000007047F0B50C461546002200210026078CDB
:101010004EF6FF7C07EA0C070784828B018C4FF6A3
:10102000FF7707EA043640F6FF473A404FF6FF776E
:1010300007EA05273A434FF6FF7707EA03373A43B3
:10104000D94FB8420ED0D94FB8420BD0B0F1804F33
:1010500008D0D74FB84205D0D64FB84202D0D64FAD
:10106000B84206D14DF6FF77394046F480573943F0
:1010700005E047F6FF57394044F4805739438283EF
:101080000184F0BD828B4FF6F3731A408283828B0A
:101090000A4382837047F0B50C46154600220021B2
:1010A0000026078C4FF6FF6C07EA0C070784828B3B
:1010B000018C4FF6FF7707EA04264FF60C773A408B
:1010C0004FF6FF7707EA03172F433A43B64FB8426C
:1010D0000ED0B64FB8420BD0B0F1804F08D0B44F0D
:1010E000B84205D0B34FB84202D0B34FB84206D190
:1010F0004FF6FF57394046F48077394305E04FF209
:10110000FF57394044F48077394382830184F0BD2E
:10111000028B4FF2FF331A400283028B4FF6FF73AC
:1011200003EA01231A4302837047F0B50C461546C3
:10113000002200210026078C4FF6EF7C07EA0C07FF
:101140000784028B018C4FF6FF7707EA041640F6FE
:10115000FF473A404FF6FF7707EA03373A434FF627
:10116000FF7707EA05273A438F4FB8420ED08F4FDB
:10117000B8420BD0B0F1804F08D08D4FB84205D0A7
:101180008C4FB84202D08C4FB84206D14FF6DF7771
:10119000394046F01007394305E04FF65F77394094
:1011A00044F01007394302830184F0BD028B4FF6EF
:1011B000F3731A400283028B0A4302837047F0B52F
:1011C0000C46154600220021068C4FF6FE773E4065
:1011D0000684028B018C4FF60C7632407E1C06EAA8
:1011E00003162E433243704EB0420ED06F4EB042C3
:1011F0000BD0B0F1804F08D06D4EB04205D06D4E8F
:10120000B04202D06C4EB04206D14FF6FD7631406E
:1012100044F00106314305E04FF6F576314044F0E5
:101220000106314302830184F0BD70B505460C46CA
:101230005D4885420ED05D4885420BD0B5F1804FA8
:1012400008D05B48854205D05A48854202D05A48AA
:10125000854200D100E000BF208850B92389A288D0
:1012600061882846FFF7ABFFE1882846FFF79EFF1D
:1012700025E0208804280AD12389A288618828468D
:10128000FFF753FFE1882846FFF742FF17E0208869
:1012900008280AD12389A28861882846FFF7FBFE27
:1012A000E1882846FFF7EEFE09E02389A2886188DD
:1012B0002846FFF7A6FEE1882846FFF795FE70BD99
:1012C0002DE9F04105460C4600260127608808B943
:1012D000022600E00026A088012801D1022700E0B4
:1012E00001272088A0B92389A28861882846FFF7B2
:1012F00066FFE1882846FFF759FF23893A463146C1
:101300002846FFF712FFE1882846FFF701FF13E0A8
:101310002389A28861882846FFF707FFE1882846CD
:10132000FFF7F6FE23893A4631462846FFF747FF86
:10133000E1882846FFF73AFFBDE8F0810A884B882C
:101340001A438B881A43CB881A430B891A434B895B
:101350001A438B891A43A0F8442070474FF6FF7157
:10136000818000210180C18041800172704700218D
:10137000018041808180C180018141818181C18161
:101380007047002101804180012181800021C180BE
:10139000018170470021018041808180C1800181ED
:1013A0004181818170470000002C014000340140E0
:1013B0000004004000080040000C004021B10288F9
:1013C00042F00102028004E002884FF6FE731A40E8
:1013D0000280704731B1B0F8442042F40042A0F8D6
:1013E000442005E0B0F84420C2F30E02A0F84420E7
:1013F00070471AB183890B43838102E083898B4351
:10140000838170478182704741EA0203A0F8483027
:1014100070471AB183890B43838102E083898B4330
:101420008381704701894FF6F8721140018170473E
:101430000A46002101894FF68F731940114301813B
:10144000704730B504460D4629462046FFF7F0FFA9
:10145000208940F00700208130BD2DE9F04104468D
:101460000D4616461F46602D06D13B4601223146E9
:101470002046FFF75AFE05E03B4601223146204652
:10148000FFF79DFE29462046FFF7D2FF208940F056
:1014900007002081BDE8F08130B50C4600210189AC
:1014A000C9B24FF6FF7505EA0325154325432943C5
:1014B000018130BD2DE9F04105460E46174698469C
:1014C000002443463A4631462846FFF7E5FF2C897B
:1014D0004FF6F870044044F007044FF68F70044054
:1014E00044F070042C81BDE8F081F0B504460D464F
:1014F00016461F463B46324629462046FFF7CCFF9C
:10150000208940F480402081F0BD018582827047AF
:101510000A46002101884FF68F731940114301805C
:101520007047F0B50C4615461E46002100220023E8
:101530000189028B038C4FF6F877394021434FF62F
:10154000FC473A4040F201173A434FF6DD773B4003
:101550004FF6FF7707EA06172F433B4301810283CB
:101560000384F0BD0A460021018B4FF68F731940AA
:101570001143018370470A460021018B48F6FF732F
:1015800019404FF6FF7303EA0223194301837047A2
:101590000A460021818B4FF68F73194011438183D6
:1015A00070470A460021818B48F6FF7319404FF6B9
:1015B000FF7303EA022319438183704721B1028834
:1015C00042F08002028004E002884FF67F731A40E6
:1015D0000280704721B1828842F00402828004E0D8
:1015E00082884FF6FB731A408280704721B182884F
:1015F00042F00802828004E082884FF6F7731A40B6
:101600008280704721B1828842F00102828004E02A
:1016100082884FF6FE731A40828070470A46002186
:10162000018B4FF6F77319401143018370470A4647
:101630000021018B4FF2FF7319404FF6FF7303EA4D
:1016400002231943018370470A460021818B4FF61C
:10165000F77319401143818370470A460021818B3B
:101660004FF2FF7319404FF6FF7303EA0223194349
:10167000818370470A460021018B4FF6FB731940A6
:101680001143018370470A460021018B4FF6FF3357
:1016900019404FF6FF7303EA022319430183704791
:1016A0000A460021818B4FF6FB7319401143818359
:1016B00070470A460021818B4FF6FF3319404FF6E1
:1016C000FF7303EA02231943818370470A4600210E
:1016D000018B4FF67F7319401143018370470A460F
:1016E0000021018BC1F30E014FF6FF7303EA0223C1
:1016F0001943018370470A460021818B4FF67F739F
:1017000019401143818370470A460021818BC1F340
:101710000E014FF6FF7303EA0223194381837047DA
:101720000A460021018C4FF6FD73194011430184D4
:1017300070470A460021018C4FF6F7731940114398
:10174000018470470A460021018C4FF6DF7319406F
:101750004FF6FF7303EA02131943018470470A46E8
:101760000021018C4FF67F7319404FF6FF7303EA97
:1017700002131943018470470A460021018C4FF679
:10178000FF5319404FF6FF7303EA02231943018404
:1017900070470A460021018C4FF2FF7319404FF643
:1017A000FF7303EA02231943018470470A460021AC
:1017B000018C4DF6FF7319404FF6FF7303EA0233B5
:1017C00019430184704730B5002301248C40A3B233
:1017D000048C9C430484048C02FA01F5ADB22C43C2
:1017E000048430BD30B5002304248C40A3B2048CA3
:1017F0009C430484048C02FA01F5ADB22C430484AA
:1018000030BD70B50346002000241846183001256D
:101810008D40ACB21D8CA5431D8409B1082909D1A6
:1018200000EB6100056825F070050560056815434B
:1018300005600EE00D1FC5F34E052844056825F42C
:10184000E045056005684FF6FF7606EA0226354357
:10185000056070BD21B1028842F00202028004E0FE
:1018600002884FF6FD731A400280704721B102884A
:1018700042F00402028004E002884FF6FB731A4033
:101880000280704721B1828842F08002828004E0A9
:1018900082884FF67F731A408280704702884FF625
:1018A000F7731A40028002880A43028070478288D8
:1018B0004FF68F731A40828082880A438280704775
:1018C00002894FF6F8731A40028102890A430281A5
:1018D000704702894FF67F731A40028102890A43DA
:1018E0000281704781847047818570478186704787
:1018F0000187704781877047A0F8401070470288C1
:101900004FF6FF431A40028002880A430280704764
:101910000146888E70470146088F70470146888FC0
:1019200070470146B1F8400070470146888C704707
:101930000146088D704702460020138A0B4201D0F1
:10194000012000E000207047CA430282704730B592
:101950000246002000230024158A05EA0103958928
:1019600005EA010413B10CB1012000E0002030BDF4
:10197000CA4302827047000010B50446FB48844207
:1019800009D101218803FFF79BF800214FF4804023
:10199000FFF796F832E0F648844209D10121480465
:1019A000FFF79BF800214FF40030FFF796F825E091
:1019B000F048844209D101218804FFF78EF8002104
:1019C0004FF48020FFF789F818E0EB48844209D1F2
:1019D0000121C804FFF781F800214FF40020FFF730
:1019E0007CF80BE0E548844208D101210805FFF7A7
:1019F00074F800214FF48010FFF76FF810BD2DE947
:101A0000F04786B005460E460024A24600BFA14618
:101A10000027B08900B100BF2F462C8A4CF6FF701A
:101A20000440F08804432C82AC894EF6F310044045
:101A3000B08831890843718908430443AC81AC8A7A
:101A40004FF6FF400440B0890443AC8201A8FEF782
:101A5000B0FFC648874202D1DDF810A001E0DDF8F2
:101A60000CA0A88910F4004F08D00AEBCA0000EBC4
:101A70000A1031684900B0FBF1F807E00AEBCA0030
:101A800000EB0A1031688900B0FBF1F86420B8FB64
:101A9000F0F004012009642101FB1089A88910F4E9
:101AA000004F08D0322000EBC900B0FBF1F000F08D
:101AB0000700044308E0322000EB09106421B0FB6A
:101AC000F1F000F00F0004432C8106B0BDE8F08770
:101AD0004FF41651016000218180C18001810C21E9
:101AE000418100218181704710B502460020108A93
:101AF0004FF2FF0318400B884C8823438C88234304
:101B0000CC8823431843108210BD002101804180FE
:101B10008180C180704721B1828942F40052828164
:101B200004E082894DF6FF731A4082817047F0B558
:101B300003460024002600250020A1F510676A3F17
:101B400000D100BF1846C1F3421401F01F0601275F
:101B500007FA06F5012C01D10C3004E0022C01D16A
:101B6000103000E014301AB107682F43076002E01C
:101B70000768AF430760F0BD1AB1838A0B438382C5
:101B800002E0838A8B4383827047028A4FF6F073A8
:101B90001A400282028A0A430282704782894FF207
:101BA000FF731A40828182890A438281704721B182
:101BB000828942F00202828104E082894FF6FD733D
:101BC0001A4082817047028A4FF6DF731A40028200
:101BD000028A0A430282704721B1028A42F480429B
:101BE000028204E0028A4BF6FF731A4002827047B9
:101BF000C1F308028280704701468888C0F308005C
:101C00007047818941F0010181817047028BD2B216
:101C10000283028B42EA012202837047028B02F4A4
:101C20007F420283028B0A430283704721B1828A7A
:101C300042F02002828204E0828A4FF6DF731A406B
:101C40008282704721B1828A42F01002828204E0CF
:101C5000828A4FF6EF731A408282704721B1828ADE
:101C600042F00802828204E0828A4FF6F7731A403B
:101C70008282704721B1828942F40042828103E06E
:101C80008289C2F30E028281704721B1828A42F4B6
:101C90000062828204E0828A4FF2FF731A408282DD
:101CA0007047828A4FF6FB731A408282828A0A4307
:101CB0008282704721B1828A42F00202828204E06D
:101CC000828A4FF6FD731A408282704702460020D6
:101CD000B1F5007F00D100BF13880B4201D0012075
:101CE00000E00020704701F40072B2F5007F00D1DF
:101CF00000BFCA430280704770B50246002400232B
:101D000000250020A1F510666A3E00D100BFC1F396
:101D1000421501F01F03012606FA03F3012D02D13B
:101D20009689334006E0022D02D1168A334001E045
:101D3000968A33400C12012606FA04F416883440C1
:101D400013B10CB1012000E0002070BD10B50022DD
:101D50000023A1F510646A3C00D100BF0A120124DF
:101D60009440A3B2DC43048010BD00000038014061
:101D70000044004000480040004C0040005000403B
:101D80000146C24A12688A4203D3C04A1268501AF6
:101D900004E0BF4A521ABD4B1B68D0187047BB48BD
:101DA0000068704770B505460E46B848A0F80C515B
:101DB000002405E0315DB5480C300155601C84B24B
:101DC000AC42F7DB002240F22551B248FFF7AFFEEC
:101DD000012240F22661AF48FFF7A9FE70BD70B541
:101DE00004460D4616465521A84880F88C10AA21B5
:101DF00080F88D1080F88E4080F88F5080F89060C9
:101E000090F88E1090F88F004840A04991F89010FB
:101E100041409E4880F8911000F18C010620FFF7A8
:101E2000C1FF70BD0221994880F81011002180F88F
:101E30001111A0F81211704700B502469348B0F88E
:101E4000160108B9FFF7EEFF904890F8100100F076
:101E50000700072871D2DFE800F09C0413223C56EB
:101E60007100552A07D10221884880F810113221CB
:101E7000A0F8161103E000218448A0F8161189E0AB
:101E8000AA2A07D10321814880F810113221A0F835
:101E9000161103E000217D48A0F816117AE0042114
:101EA0007A4880F810113221A0F81611B0F81211FA
:101EB000B0F81201401C83B27448A0F812314C30C3
:101EC00042544C3890F811015040704981F811018A
:101ED00060E005216D4880F810113221A0F816113C
:101EE000B0F81211B0F81201401C83B26748A0F894
:101EF00012314C3042544C3890F811015040634933
:101F000081F8110146E00621604880F81011322165
:101F1000A0F81611B0F81211B0F81201401C83B2EB
:101F20005A48A0F812314C3042544C3890F8110104
:101F30005040564981F811012CE02AE0534890F8AE
:101F40001101904220D100215048A0F8141111E055
:101F50004E48B0F814114C30415C4C38B0F8143194
:101F6000CC30C154CC38B0F81401401C81B2474881
:101F7000A0F814114548B0F814010328E8DB01214A
:101F8000424880F8181103E000214048A0F81611DB
:101F900000E000BF00BF00BD10B53C4890F818013C
:101FA00010F0010F25D00021384880F8181190F862
:101FB000CC0068B9354890F8CD0048B9334B93F858
:101FC0001D2193F8CD1093F8CC00FFF708FF07E030
:101FD0002E4A92F8CD1092F8CC000122FFF7FFFEB6
:101FE0002A4B93F81C2193F81B1193F81A0103F064
:101FF0009EF910BD10B540212748FEF702FB0128CD
:1020000013D1224890F81E0110F0010F03D1642172
:102010001E4880F81F111D4890F81E0120F0010095
:10202000401C1A4981F81E011AE0184890F81E0158
:1020300010F0010F0CD0154890F81F0140B913485B
:1020400090F81E0120F00200801C104981F81E014A
:102050000E4890F81E0120F001010C4880F81E1176
:1020600010BD10B5094890F81E01C0F3400060B1E2
:10207000082200210846FFF7B2FE044890F81E012E
:1020800020F00201014880F81E1110BD5000002010
:10209000005C260500440040000C0140704700BF72
:1020A000FEE700BFFEE700BFFEE700BFFEE77047A8
:1020B00070477047704710B501218807FFF747FC4C
:1020C00030B346480068401C444908600846006830
:1020D0004349884202D30020404908603F48B0F895
:1020E0001601002807DD3D48B0F81601401E81B2F8
:1020F0003A48A0F81611394890F81F01002807DD6A
:10210000364890F81F01401EC1B2344880F81F11B4
:1021100001218807FFF72CFC10BD10B540F22551B6
:102120003048FFF7E9FD58B12E48FFF765FDC4B20E
:102130002046FFF781FE40F225512A48FFF706FEB0
:1021400040F226612748FFF7D7FD002844D02348F6
:10215000B0F80C01002828DD2048B0F80E21B0F8B6
:102160000E01401C83B21D48A0F80E310C30815C7A
:102170001C48FFF73DFD1948B0F80E11B0F80C01EE
:10218000814224D100211548A0F80C11A0F80E11AD
:10219000002240F226611348FFF7C9FC012240F2F9
:1021A00025511048FFF7C3FC11E000210B48A0F8AF
:1021B0000C11A0F80E11002240F226610948FFF729
:1021C000B6FC012240F225510648FFF7B0FC40F270
:1021D00026610448FFF7BAFD10BD00005000002042
:1021E000005C26050044004010B54FF44070FEF737
:1021F000A9F810BD10B50120FEF763FB2120FEF702
:102200001EFB04460CB9002010BD4FF4E011002065
:10221000FEF75AFB0120FEF763FB00BF3920FEF7F3
:102220000EFB0028FAD03920FEF709FB04460220F5
:10223000FEF759FB0020FEF764FB0020FEF76AFB67
:102240000020FEF770FB0120DEE710B5FEF7B4FAC0
:102250004FF48030FEF7D0FAFEF70DFBF849087016
:1022600008460078D8B94FF4E0114FF48030FEF7FB
:102270002BFB0120FEF734FB00BF3920FEF7DFFA0D
:102280000028FAD00220FEF72EFB0020FEF739FBD3
:102290004FF48060FEF73EFB0020FEF744FB10BDCC
:1022A00008B501210846FEF7E4FB0121E548FEF7E9
:1022B000FAFB012144F61D00FEF7E8FB0121E2488C
:1022C000FEF7DDF94FF6FF70ADF8000010208DF835
:1022D000030003208DF802006946DC48FEF700F990
:1022E0006946DB48FEF7FCF86946DA48FEF7F8F87D
:1022F0006946D948FEF7F4F808BD10B545F25550C7
:10230000FEF73AFA0620FEF73AFA40F6FF70FEF7BB
:1023100039FAFEF73FFA10BD30B5D04800684FF4E7
:102320007A72B0FBF2F1B1F1807F01D301201BE0A2
:1023300021F07F40401E4FF0E022506150170F22E5
:10234000002806DA1301C64C00F00F052D1F635557
:1023500002E01301C34C235400BF00204FF0E022E1
:10236000906107201061002008B100BFFEE730BD7A
:102370001FB56320ADF8080040F26710ADF8040007
:102380000020ADF80A00ADF8060001A94FF080402A
:10239000FEF7B8FC1C208DF8000002208DF801002B
:1023A00000208DF8020001208DF803006846FDF73B
:1023B000CEFF012211469007FFF71BF80121880785
:1023C000FEF7FCFF1FBD1FB50920ADF8080040F661
:1023D0000F60ADF804000020ADF80A00ADF806006B
:1023E00001A9A148FEF78EFC1D208DF800000320F6
:1023F0008DF8010000208DF8020001208DF8030007
:102400006846FDF7A4FF012211469748FEF7F1FF49
:1024100001219548FEF7D2FF1FBD00B587B004200B
:10242000ADF8180003208DF81A0018208DF81B0055
:1024300006A98648FEF754F80820ADF818000420D5
:102440008DF81B0006A98148FEF74AF84FF4E130E9
:1024500002900020ADF80C00ADF80E00ADF81000B1
:10246000ADF814000C20ADF8120002A97F48FFF768
:10247000C6FA26208DF8040001208DF80500002002
:102480008DF8060001208DF8070001A8FDF75FFF19
:10249000012240F225517548FFF749FB012173489D
:1024A000FFF739FB07B000BD08B50820ADF8000004
:1024B00003208DF8020004208DF80300694664486B
:1024C000FEF70EF81020ADF8000003208DF8020092
:1024D00004208DF8030069465D48FEF701F82020CE
:1024E000ADF8000003208DF8020004208DF80300F1
:1024F00069465748FDF7F4FF4020ADF8000003207F
:102500008DF8020004208DF8030069465048FDF75D
:10251000E7FF08BD00B585B04FF40070ADF81000BE
:1025200003208DF8120018208DF8130004A94748E5
:10253000FDF7D6FF4FF48060ADF8100004208DF851
:10254000130004A94148FDF7CBFF4FF4E1300090A0
:102550000020ADF80400ADF80600ADF80800ADF8B5
:102560000C000C20ADF80A0069464148FFF747FA15
:1025700001213F48FFF7CFFA05B000BD10B5FFF7C6
:1025800033FEFFF78DFEFFF7B8FEFFF7C3FFFFF73F
:1025900044FFFFF7EDFEFFF787FF482001F06EFBD9
:1025A00010BD10B5002033490860486088604021A4
:1025B00030480C3002F053FF40212E484C3002F0DE
:1025C0004EFF40212B488C3002F049FF4021294822
:1025D000CC3002F044FF00212648A0F80C11A0F8EE
:1025E0000E11012180F81011002180F81111A0F8BE
:1025F0001211A0F81411A0F8161180F8181180F823
:102600001D1100201B4981F81A010021194880F88A
:102610001B1180F81C1190F81E0120F001011548D3
:1026200080F81E1190F81E0120F00201114880F878
:102630001E11002180F81F1180F8201110BD00002C
:102640002800002017081E0000023000000801408A
:10265000000C014000100140001401400000002067
:1026600018ED00E000E400E00004004000440040F9
:10267000003801405000002010B5FFF77FFFFFF742
:1026800090FF10BD70B504460D46E1B21348FFF748
:10269000AFFA00BF40211148FFF718FB0028F9D01E
:1026A000204670BD10B5044600BF20210B48FFF73F
:1026B0000DFB0128F9D10948FFF79EFA10BD044629
:1026C0000D462A46214606A003F0B0F900BFFEE7FA
:1026D00000E0401E0028FCD1704700000038014097
:1026E000617373657274206661696C6564206174DE
:1026F0002025733A2564200A0000000008B5FFF782
:10270000BBFF02F045F800F0F9FBFF21002000F0CC
:1027100059FC0721012000F055FC0721022000F0A0
:1027200051FC0721032000F04DFCA721042000F0FC
:1027300049FCA721052000F045FC00F02CFC4FF4DB
:1027400080705B4908604EF67D7002F0C1F959A0B7
:102750004EF67D731F2238210090102001F085FD78
:10276000202153481038FDF74CFF840010215048B9
:102770001038FDF746FF44EA400408214C48103861
:10278000FDF73FFF04434E4880F81D41FFF707FB6C
:102790004B4988608BE0FDF7F8FF494890F820012D
:1027A00010F0010F39D1464890F8180110F0010FD0
:1027B0006CD00021424880F8181190F8CC0078B90C
:1027C0003F4890F8CD0058B93D4890F8CE0038B950
:1027D0003B4890F81D2101210020FFF700FB55E048
:1027E000374890F8CC00002850D1354890F8CD00FB
:1027F00000284BD1324890F8CE00012846D131A0B4
:102800004EF67D731F2238210090102001F02DFD1F
:1028100001212B4880F8201138E0294890F8180150
:1028200010F0010F2ED00021254880F8181190F8E3
:10283000CC00B0B9224890F8CD0090B9204890F86B
:10284000CE0001280DD14EF67D7002F041F920A096
:102850004EF67D731F2238210090102001F005FDF7
:1028600010E0174A92F8CD1092F8CC000122FFF741
:10287000B6FA134B93F8CE2093F8CD1093F8CC0012
:1028800002F055FDFFF7B6FBFFF7EBFB0C4988683C
:10289000FFF776FAB0F57A7F09D9FFF780FA084991
:1028A00088604EF67D720021084602F0B5F872E7A6
:1028B000100C0140B3F5CABCBBAF2E2E2E00000099
:1028C00050000020B3F5CABCBBAF4F4B0000000066
:1028D000BCECB2E2D6D02E2E2E00000000207047B5
:1028E00070B504460D462246294607A003F09EF81F
:1028F00070BD72B6704762B6704705A0704707A0FA
:10290000704709A070470000252E2A7300000000C0
:1029100031303A30383A3132000000007069643AA0
:1029200031303038000000007469643A32340000FD
:1029300010B5002400BF19E004EB440101EB0412C0
:10294000FE491144481C112102F089FD002104EBCD
:10295000440000EB0412F948815404EB440000EBFE
:102960000412F64810448174601CC4B2052CE3DBE9
:1029700010BD10B5F148233890F89E0038B1FFF72C
:10298000BAFF0020ED49233981F8A00004E00020BF
:10299000EA49233981F89F0010BD30B585B004465F
:1029A0000D46052C1CDDE6480068002811D140F2D8
:1029B000A720E449E4A2EBA3CDE90310CDE901325D
:1029C00000900B46F0A2F6A1002000F07DF800BFB9
:1029D000FEE740F2A722DB49DBA0D94B1B689847F2
:1029E000D648613050F82400284202D0012005B0BA
:1029F00030BD0020FBE710B5D048233890F89E008A
:102A000038B1FFF776FF0120CC49233981F8A000C7
:102A100004E00120C949233981F89F0010BD70B539
:102A200086B00646002E1CD1C5480068002811D18A
:102A300040F2AB10DC49DDA2CAA3CDE90310CDE919
:102A4000013200900B46D0A2D5A1002000F03CF846
:102A500000BFFEE740F2AB12D349D4A0B84B1B68CD
:102A6000984700240525B548233890F89C0010B9F4
:102A7000284606B070BDFFF73CFF00241DE004EBC4
:102A8000440000EB0411AD480844807C012812D1B9
:102A900004EB440000EB0412A8481044411C10222F
:102AA000304602F016FD30B904EB440000EB04118F
:102AB000A248455C03E0601CC4B2052CDFDB00BF0C
:102AC000FFF757FF2846D4E72DE9F04F8BB00546B6
:102AD0000F4693469846384602F0EAFC81460024A9
:102AE0004FF0020A002009900A9006900790089083
:102AF000052D1CDD92480068002811D140F2092004
:102B0000AF4991A297A3CDE90310CDE9013200901E
:102B10000B469DA2A2A10020FFF7D6FF00BFFEE753
:102B200040F20922A64988A0854B1B689847834834
:102B3000233890F89D0010B90BB0BDE8F08F7F48A6
:102B400023380078A84204DB3846FFF768FFA84224
:102B500000DAF1E779492239384602F08BFC00B9F6
:102B6000EAE716A80590FFF746FF01212846FFF780
:102B700014FF40B1934850F825209348011920468E
:102B800000F04AFF044402212846FFF706FFE8B19F
:102B90008D4801193A46204600F03EFF0444B9F141
:102BA000080F0CD8C9F10801202206A802F050FC39
:102BB0008548011906AA204600F02EFF04448248E9
:102BC000011982A2204600F027FF04441C21284658
:102BD000FFF7E3FE002852D07B4801197CA2204673
:102BE00000F01AFF044404212846FFF7D6FEA8B1DE
:102BF000FFF783FE0490744801192046049A00F000
:102C00000BFF044418212846FFF7C7FE30B16E4879
:102C100001196EA2204600F0FFFE04440821284658
:102C2000FFF7BBFEA8B1FFF76AFE049066480119E2
:102C30002046049A00F0F0FE044410212846FFF7D5
:102C4000ACFE30B16048011960A2204600F0E4FEFD
:102C5000044410212846FFF7A0FE48B1FFF751FEBB
:102C60000490594801192046049A00F0D5FE044406
:102C70005548011957A2204600F0CEFE0444E02139
:102C80002846FFF78AFE002856D04F48011952A265
:102C9000204600F0C1FE044420212846FFF77DFEB7
:102CA000F8B1494801195A46204600F0B5FE0444DF
:102CB00040212846FFF771FE38B14348011943A26D
:102CC000204600F0A9FE04440BE080212846FFF7CF
:102CD00064FE30B13C48011940A2204600F09CFE41
:102CE000044440212846FFF758FE90B136480119A8
:102CF0004246204600F090FE044480212846FFF71B
:102D00004CFE30B13048011934A2204600F084FE58
:102D1000044480212846FFF740FE60B130A205211F
:102D200009A8149B02F092FE2748011909AA20461F
:102D300000F072FE044455E05BE0000097020020C2
:102D400044000020006400086C6576656C203C3D02
:102D500020454C4F475F4C564C5F564552424F53AF
:102D60004500000028257329206861732061737372
:102D7000657274206661696C6564206174202573D6
:102D80003A256C642E00000050726F6A6563745CB3
:102D90006C6F675C7372635C656C6F672E630000B9
:102DA000656C6F6700000000DC63000874616720D9
:102DB000213D202828766F6964202A2930290000C7
:102DC000F46300082C0000207401002020000000A3
:102DD0005B0000005D200000280000003A000000B9
:102DE000256C6400FC480119FCA2204600F014FE8A
:102DF0000444C4F58071F84A1019059B159A02F035
:102E000039FE064600200590A019B0F5807F03D852
:102E1000002E01DB344401E04FF4807404EB0A001F
:102E2000B0F5807F03D94FF48074A4EB0A04EC481A
:102E3000807C58B10020E8490855E9491231E6483C
:102E400002F018FB10B9FFF794FD75E6E24801198E
:102E5000E4A2204600F0E0FD04442146DE48FFF7EE
:102E60003FFDFFF786FD00BF66E610B586B004465D
:102E7000052C21DDDC480068002815D140F2251022
:102E8000DA49AFF23C12AFF22413CDE90310CDE9D9
:102E9000013200900B46AFF21012AFF2FC0100209D
:102EA000FFF712FE00BFFEE740F22512CF49AFF256
:102EB0006810CD4B1B689847C948047006B010BD18
:102EC00010B50446C64880F89E4090F89E00A0B118
:102ED000C34890F8A00030B9C14890F89F0010B1E5
:102EE000FFF707FD09E0BE4890F8A00028B1BC48F4
:102EF00090F89F0008B9FFF7FEFC10BD10B5002444
:102F0000B74890F89C00012801D1204610BDFFF77A
:102F1000E5FC04460CB12046F8E70120FFF7D0FF9E
:102F20000020AF4981F89F0081F8A0000520FFF73D
:102F30009CFFFFF7FDFC0120A94981F89C00204679
:102F4000E4E710B586B00446002C1FD0012C1DD03C
:102F5000A5480068002813D1E220A549A5A2AFF238
:102F6000FC13CDE90310CDE9013200900B46AFF21E
:102F7000E812AFF2D4110020FFF7A6FD00BFFEE774
:102F8000E2229B499BA0984B1B689847944880F885
:102F90009D4006B010BD0EB50120FFF7D2FF9FA0E7
:102FA000A0A1D922A94BCDE900210290AFF228229D
:102FB000AFF214210320FFF787FD0EBD884890F87B
:102FC0009D00704730B585B004460D46052C21DDC7
:102FD00085480068002815D140F20B109C49AFF2DB
:102FE0009822AFF28023CDE90310CDE901320090A1
:102FF0000B46AFF26C22AFF258210020FFF764FDC0
:1030000000BFFEE740F20B129149AFF2C420764BAD
:103010001B6898477248843040F8245005B030BD92
:1030200010B50446102221466D48123002F034FAE1
:1030300010BD10B50446102221466948401C02F01C
:103040002BFA10BD70B586B006460C461546052E07
:1030500021DD65480068002815D14FF48C707D494A
:10306000AFF21C32AFF20433CDE90310CDE90132E7
:1030700000900B46AFF2F022AFF2DC210020FFF708
:1030800023FD00BFFEE74FF48C727249AFF2483067
:10309000554B1B6898473046FFF7E7FE2046FFF781
:1030A000C8FF2846FFF7BCFF06B070BD70B586B0FC
:1030B00006460D46052D21DD4B480068002815D138
:1030C0004FF4BB706449AFF28032AFF26833CDE9A0
:1030D0000310CDE9013200900B46AFF25432AFF24B
:1030E00040310020FFF7F0FC00BFFEE74FF4BB7259
:1030F0005949AFF2AC303C4B1B689847002E21D1A8
:1031000039480068002815D140F277105249AFF2D3
:103110006432AFF2B033CDE90310CDE90132009053
:103120000B46AFF29C32AFF288310020FFF7CCFCA7
:1031300000BFFEE740F277124749AFF290302A4BCA
:103140001B6898470024264890F89C0008B906B0F0
:1031500070BDFFF7CEFB002419E004EB440000EB48
:1031600004111F4823300844807C01280DD104EB52
:10317000440000EB04121A4823301044411C102272
:10318000304602F0A6F900B903E0601CC4B2052C79
:10319000E3DB00BF052C68DA052D5FD1002104EBCD
:1031A000440000EB04120E4823301044817404EBF9
:1031B000440101EB04120A4923311144481C112136
:1031C00002F04DF9002104EB440000EB0412044826
:1031D0002330815474E048E074010020290000008D
:1031E000740200200D0A000044000020B0630008B3
:1031F0007B63000828656E61626C6564203D3D203C
:1032000066616C736529207C7C2028656E61626C28
:103210006564203D3D20747275652900322E322E82
:1032200030000000456173794C6F67676572205606
:10323000257320697320696E697469616C697A65A8
:1032400020737563636573732E000000706300085C
:1032500093630008A0630008C463000804EB440003
:1032600000EB0411F94845542AE0052D28D000242C
:1032700023E004EB440000EB0411F4480844807C94
:10328000C8B904EB440101EB0412F0491144481C95
:103290001022314602F000F904EB440000EB041167
:1032A000EA484554012104EB440000EB0412E748CE
:1032B0001044817403E0601CC4B2052CD9DB00BF4C
:1032C000FFF757FB00BF42E70FB438B50025DF48D2
:1032D000233890F89D0010B938BC5DF814FB05A8A0
:1032E0000090FFF788FB4FF48071D948009B049A47
:1032F00002F0C0FB0446002C04DBB4F5807F01DC47
:10330000254601E04FF480752946D148FFF7E8FAD9
:10331000FFF72FFB0020009000BFDDE7CD490860DC
:10332000704710B586B00446002C1ED1C94800680D
:10333000A0B940F2D620C849C8A2AFF2D853CDE90F
:103340000310CDE9013200900B46AFF2C452AFF248
:10335000B0510020FFF7B8FB00BFFEE740F2D622D5
:10336000BD49BEA0BB4B1B689847B848233890F8AE
:10337000840010F0010F1FD1B6480068002814D156
:103380004FF43670B449B6A2AFF22863CDE903100A
:10339000CDE9013200900B46AFF21462AFF200614A
:1033A0000020FFF791FB00BFFEE74FF43672AA49F9
:1033B000ABA0A84B1B689847A448233890F8880016
:1033C00010F0010F1FD1A3480068002814D140F26B
:1033D000D920A149B0A2AFF27463CDE90310CDE9C1
:1033E000013200900B46AFF26062AFF24C610020F8
:1033F000FFF76AFB00BFFEE740F2D9229649A6A07C
:10340000944B1B6898479148233890F88C0010F033
:10341000010F1FD18F480068002814D140F2DA2034
:103420008D49AAA2AFF2C463CDE90310CDE9013200
:1034300000900B46AFF2B062AFF29C610020FFF744
:1034400043FB00BFFEE740F2DA2283499FA0814B95
:103450001B6898477D48233890F8900010F0010FC2
:103460001FD17C480068002814D140F2DB207A4943
:10347000A3A2AFF21073CDE90310CDE901320090A1
:103480000B46AFF2FC62AFF2E8610020FFF71CFBD5
:1034900000BFFEE740F2DB226F4999A06D4B1B682D
:1034A00098476A48233890F8940010F0010F1FD114
:1034B00068480068002814D14FF4377066499DA20F
:1034C000AFF26073CDE90310CDE9013200900B46F5
:1034D000AFF24C72AFF238710020FFF7F5FA00BF7F
:1034E000FEE74FF437725C4992A05A4B1B6898472D
:1034F0005648233890F8980010F0010F1FD1554816
:103500000068002814D140F2DD20534996A2AFF2A2
:10351000AC73CDE90310CDE9013200900B46AFF258
:103520009872AFF284710020FFF7CEFA00BFFEE779
:1035300040F2DD2248498CA0464B1B689847207812
:10354000492813D006DC412809D0442810D045284A
:1035500012D107E056280DD057280DD104E00020E5
:1035600006B010BD0120FBE70220F9E70320F7E7D2
:103570000420F5E70520F3E74FF0FF30F0E72DE9F1
:10358000F04186B005460C4616460027B846002D89
:103590001ED130480068A0B94FF4417080492FA275
:1035A000AFF64003CDE90310CDE9013200900B46A0
:1035B000AFF62C02AFF618010020FFF785FA00BF26
:1035C000FEE74FF44172764924A0224B1B689847CE
:1035D000002E1ED11F480068A0B940F20530704986
:1035E00070A2AFF68003CDE90310CDE9013200905F
:1035F0000B46AFF66C02AFF658010020FFF764FAF5
:1036000000BFFEE740F20532654966A0114B1B681A
:103610009847062C18DB0F480068002815D140F2A7
:1036200006305F4961A2AFF6C403CDE90310CDE9CE
:10363000013200900B46AFF6B002AFF69C010020BD
:10364000FFF742FA00BFFEE7C6E0BDE097020020A8
:103650007401002044000020106400086C6F6700B3
:10366000656C6F672E656E61626C65645F666D7414
:103670005F7365745B454C4F475F4C564C5F4153DD
:10368000534552545D202620454C4F475F464D54CC
:103690005F4C564C00000000656C6F672E656E61D4
:1036A000626C65645F666D745F7365745B454C4FF7
:1036B000475F4C564C5F4552524F525D2026204585
:1036C0004C4F475F464D545F4C564C00656C6F67DE
:1036D0002E656E61626C65645F666D745F736574A0
:1036E0005B454C4F475F4C564C5F5741524E5D20F7
:1036F0002620454C4F475F464D545F4C564C0000CA
:10370000656C6F672E656E61626C65645F666D7473
:103710005F7365745B454C4F475F4C564C5F494E39
:10372000464F5D202620454C4F475F464D545F4C29
:10373000564C0000656C6F672E656E61626C656447
:103740005F666D745F7365745B454C4F475F4C56A5
:103750004C5F44454255475D202620454C4F475F0E
:10376000464D545F4C564C00656C6F672E656E611C
:10377000626C65645F666D745F7365745B454C4F26
:10378000475F4C564C5F564552424F53455D20268D
:1037900020454C4F475F464D545F4C564C0000004F
:1037A0001E6400087461675F6C656E006C766C2047
:1037B0003C20454C4F475F4C564C5F544F54414C56
:1037C0005F4E554D0000000040F206327749AFF2DF
:1037D0002400774B1B689847764810F8240010F0B7
:1037E000020F1FD172480068002814D14FF44270B4
:1037F0006E4971A2AFF69423CDE90310CDE90132F1
:1038000000900B46AFF68022AFF66C210020FFF748
:103810005BF900BFFEE74FF44272644966A0644B57
:103820001B6898476F4951F8240001F041FE471981
:1038300010222021384601F042FE5FEA000803D042
:10384000A8EB0700306000E00027384606B0BDE86E
:10385000F0812DE9FF5F83460F4691469A4600248A
:103860000020029003905348843890F89D0008B9D6
:10387000BDE8FF9F4F4884380078042800DAF7E756
:103880004C498339584601F0F5FD00B9F0E7FFF7E0
:10389000B2F8002583E0E819401E5B4652A24FF4BF
:1038A0008071CDE90050564802F0D0F88046B8F15A
:1038B000000F05DBB8F5807F02DC1FFA88F401E019
:1038C0004FF4807400262AE0A819504508DAA81998
:1038D00019F800304BA2082102A802F0B7F804E062
:1038E00008224AA102A801F0D7FD4548011902AA01
:1038F000204600F091F8204484B2701CC11700EB00
:103900005171C910B0EBC10107D13D4801193BA26B
:10391000204600F081F8204484B2701C86B2BE427A
:10392000D2DB374801193AA2204600F075F820444E
:1039300084B200261DE0A819504518DAA81919F814
:10394000000020385F2803D2A81919F8000000E011
:103950002E2003462FA2082102A802F077F828485B
:10396000011902AA204600F057F8204484B2701CC6
:1039700086B2BE42DFDBA01CB0F5807F00D9FE24FA
:103980001F480119AFF2A472204600F045F8204408
:1039900084B221461A48FEF7A3FFE81985B25545BF
:1039A000FFF679AFFEF7E5FF00BF61E71E64000890
:1039B00044000020F8020020656C6F672E656E6180
:1039C000626C65645F666D745F7365745B6C766C66
:1039D0005D202620454C4F475F464D545F5441477C
:1039E000000000002C000020442F4845582025737B
:1039F0003A20253034582D253034583A2000000024
:103A000074010020253032582000000020202000C2
:103A10002020000025630000F0B585B006460D4665
:103A200014462746002D19D17748006880B92C200C
:103A3000764977A277A3CDE90310CDE90132009052
:103A40000B467DA284A10020FFF73EF800BFFEE7F1
:103A50002C226E496EA06C4B1B689847002C19D124
:103A60006948006880B92D2068497DA269A3CDE925
:103A70000310CDE9013200900B466FA276A1002021
:103A8000FFF722F800BFFEE72D22604974A05E4BCD
:103A90001B68984709E03046761CFF2804D814F8C4
:103AA000010B05F8010B00E002E020780028F2D1BC
:103AB00000BFE01B05B0F0BD2DE9F04186B0054622
:103AC0000C46904602260027002D19D14E4800686A
:103AD00080B94620634964A24EA3CDE90310CDE925
:103AE000013200900B4654A25BA10020FEF7ECFFD0
:103AF00000BFFEE746225B495BA0434B1B6898472B
:103B0000002C19D14048006880B94720554958A277
:103B100040A3CDE90310CDE9013200900B4646A247
:103B20004DA10020FEF7D0FF00BFFEE747224D4920
:103B30004FA0354B1B6898470DE014F8010B05F8B2
:103B4000010B7F1CB74206D3A01B324649A101F0EE
:103B5000C0FC00B904E05FEA0800A8F10108ECD15C
:103B600000BF384606B0BDE8F0812DE9F04186B0CF
:103B700004460D46904626462F46002C19D1224871
:103B8000006880B960203C4921A222A3CDE903103E
:103B9000CDE9013200900B4627A22FA10020FEF7AD
:103BA00093FF00BFFEE76022334919A0164B1B6844
:103BB0009847002D19D11448006880B961202E491A
:103BC00027A214A3CDE90310CDE9013200900B46E2
:103BD00019A221A10020FEF777FF00BFFEE76122B6
:103BE00025491FA0084B1B68984703E017F8010BF5
:103BF00006F8010B5FEA0800A8F10108F6D120469B
:103C000006B0BDE8F0810000440000202C640008EC
:103C100064737400282573292068617320617373AD
:103C2000657274206661696C656420617420257317
:103C30003A256C642E00000050726F6A6563745CF4
:103C40006C6F675C7372635C656C6F675F757469DA
:103C50006C732E6300000000656C6F67000000004D
:103C600073726300386400086C696E6500000000C0
:103C70006C6F67000D0A0000436400084FF0E021FC
:103C8000096921F004014FF0E0221161C21700EB35
:103C90005272D210224B1A701946097801EB410278
:103CA000C2EBC1114FF6FF7202EAC1011D4A118039
:103CB000704701461B4A12884A434FF0E0235A617D
:103CC00000229A6101221A6100BF4FF0E0221069C0
:103CD00010F0010F02D010F4803FF6D000224FF018
:103CE000E0231A619A61704701460D4A12784A43EF
:103CF0004FF0E0235A6100229A6101221A6100BF4D
:103D00004FF0E022106910F0010F02D010F4803F54
:103D1000F6D000224FF0E0231A619A61704700004C
:103D2000480000204A00002030B5014601F01F0481
:103D3000C1F34513CA0AE50205EB43151544A8B2C1
:103D400030BD2DE9F04706460F4690469A460024BE
:103D500045464FEA4800C0F103094AE07A1991B29A
:103D6000321990B2524600F057FE7A1991B2321BC6
:103D700090B2524600F050FE7A1B91B2321990B2C6
:103D8000524600F049FE7A1B91B2321B90B2524665
:103D900000F042FE3A1991B2721990B2524600F008
:103DA0003BFE3A1991B2721B90B2524600F034FEBB
:103DB0003A1B91B2721990B2524600F02DFE3A1B96
:103DC00091B2721B90B2524600F026FEB9F1000F7C
:103DD00005DA042000FB049000F1060907E0601BEF
:103DE000042101FB009000F10A09681E85B2601CE5
:103DF00084B2AC42B2DBAC4237D17A1991B23219FB
:103E000090B2524600F008FE7A1991B2321990B27F
:103E1000524600F001FE7A1B91B2321990B252461E
:103E200000F0FAFD7A1B91B2321B90B2524600F0BC
:103E3000F3FD3A1991B2721990B2524600F0ECFDBE
:103E40003A1991B2721B90B2524600F0E5FD3A1B4E
:103E500091B2721990B2524600F0DEFD3A1B91B257
:103E6000721B90B2524600F0D7FDBDE8F0872DE9F5
:103E7000FF4F83B0804689464946404600F0C2FD68
:103E80000598A0EB08050698A0EB0906002D02DBBB
:103E90000120029003E04FF0FF3002906D42002EAF
:103EA00002DB0120019003E04FF0FF3001907642E9
:103EB0004FEA450A4FEA460BB54219DDABEB050464
:103EC000002712E049464046109A00F0A5FD002C5C
:103ED00005DBA4EB0A04019848441FFA80F95C440E
:103EE000029840441FFA80F87F1CAF42EADD18E0D8
:103EF000AAEB0604002712E049464046109A00F05B
:103F00008BFD002C05DBA4EB0B04029840441FFA48
:103F100080F85444019848441FFA80F97F1CB74246
:103F2000EADD07B0BDE8F08F2DE9F84305460C4601
:103F300016461F46DDF820804EF67D700090A819C9
:103F400082B2234621462846FFF791FF42F66510CC
:103F500004F1010CBC441FFA8CF305EB060CACF128
:103F6000010C1FFA8CF204F1010C1FFA8CF105EB25
:103F7000060CACF1010C00901FFA8CF0FFF777FFF4
:103F800042F665100090E01983B2A81982B2E019D8
:103F900081B22846FFF76BFF4EF67D700090E01966
:103FA00083B22A4621462846FFF761FF04F1010C3F
:103FB000BC44ACF1020C1FFA8CF305F1010CB444C3
:103FC000ACF1020C1FFA8CF204F1010C1FFA8CF117
:103FD00005F1010C1FFA8CF0CDF80080FFF747FFC8
:103FE000BDE8F8832DE9F84305460C4616461F4602
:103FF000DDF82080B8F1000F39D14EF67D700090C9
:10400000A81982B2234621462846FFF730FF42F620
:10401000651004F1010CBC441FFA8CF305EB060C8F
:10402000ACF1010C1FFA8CF204F1010C1FFA8CF1B7
:1040300005EB060CACF1010C00901FFA8CF0FFF7B9
:1040400016FF42F665100090E01983B2A81982B2FB
:10405000E01981B22846FFF70AFF4EF67D70009006
:10406000E01983B22A4621462846FFF700FFB8F13F
:10407000010F39D142F665100090A81982B223468B
:1040800021462846FFF7F3FE4EF67D7004F1010C41
:10409000BC441FFA8CF305EB060CACF1010C1FFAC3
:1040A0008CF204F1010C1FFA8CF105EB060CACF15B
:1040B000010C00901FFA8CF0FFF7D9FE4EF67D70D0
:1040C0000090E01983B2A81982B2E01981B22846A3
:1040D000FFF7CDFE42F665100090E01983B22A4644
:1040E00021462846FFF7C3FEB8F1020F39D14FF63B
:1040F000FF700090A81982B2234621462846FFF798
:10410000B6FE4FF6FF7004F1010CBC441FFA8CF3AD
:1041100005EB060CACF1010C1FFA8CF204F1010C5A
:104120001FFA8CF105EB060CACF1010C00901FFAA4
:104130008CF0FFF79CFE4FF6FF700090E01983B201
:10414000A81982B2E01981B22846FFF790FE4FF617
:10415000FF700090E01983B22A4621462846FFF7F7
:1041600086FEBDE8F883F8B504460D4616461F46A0
:1041700044F208202B463246294600902046FFF79D
:1041800076FE48F210406A1C93B291B2621C009015
:1041900090B23246FFF76BFE44F208203B462246BF
:1041A000294600902046FFF762FE48F21040631C4B
:1041B0009AB26B1C99B2631C009098B23B46FFF711
:1041C00056FE4FF6FF703B46324639460090204679
:1041D000FFF74DFE4FF6FF703B46324629460090F2
:1041E0003046FFF744FEF8BDF8B506460F461446C4
:1041F0001D464FF6FF703B4622463946009030463A
:10420000FFF735FE4FF6FF702B46324639460090D9
:104210003046FFF72CFE48F210406A1E93B291B26E
:10422000721C009090B22246FFF721FE44F2082053
:104230002B462246294600903046FFF718FE48F2EA
:104240001040631E9AB27B1C99B2631E009098B214
:104250002B46FFF70CFE44F208202B462246394637
:1042600000902046FFF703FEF8BD2DE9F84F074602
:10427000884693469A46DDF828900097B3E099F86F
:10428000000080283DDA99F800600D2E05D1009FCE
:1042900008F110001FFA80F830E0202E03DDA6F1AF
:1042A000200086B200E00026002422E000251CE069
:1042B00004EB0610E849085C80212941084208D037
:1042C00008EB040291B27A1990B25A4600F0A4FBAE
:1042D00009E0D34507D008EB040291B27A1990B2F5
:1042E000524600F099FB681CC5B2082DE0DB601C4B
:1042F000C4B2102CDADB07F1080087B209F101091A
:1043000071E0002668E006EB0610D44911F81000B1
:1043100099F8001088425DD106EB0610CF4901EBF9
:104320004000407899F80110884253D100244FE0B2
:10433000002520E006EB0610C84901EB4000801C78
:1043400010F8141080202841014208D008EB040224
:1043500091B27A1990B25A4600F05EFB09E0D3455B
:1043600007D008EB040291B27A1990B2524600F0DD
:1043700053FB681CC5B2082DDCDB002524E006EBEE
:104380000610B64901EB4000801C012101EB4401FD
:10439000405C80212941084209D008EB040291B217
:1043A0007A19083290B25A4600F036FB0AE0D3453B
:1043B00008D008EB040291B27A19083290B2524642
:1043C00000F02AFB681CC5B2082DD8DB601CC4B203
:1043D000102CADDB701C86B2322E94DB09F1020981
:1043E00007F1100087B299F8000000287FF447AF6A
:1043F000BDE8F88F2DE9F05F0646884693469A4659
:10440000DDF82890E2E099F80000802835DA99F884
:104410000070202F03DDA7F1200087B200E0002705
:10442000002522E000241CE005EB07108A49095C06
:1044300080202041014208D008EB050291B23219D8
:1044400090B25A4600F0E8FA09E0D34507D008EBED
:10445000050291B2321990B2524600F0DDFA601CAA
:10446000C4B2082CE0DB681CC5B2102DDADB09F100
:10447000010906F1080086B2A8E000279EE007EBDC
:10448000870000EB4710764911F8100099F80010EA
:1044900088427CD107EB870000EB4710704901EBA5
:1044A0004000407899F801108842F2D1002580E060
:1044B000002423E007EB870000EB4710684901EB7D
:1044C0004000801C05EB4501405C802121410842F1
:1044D00008D008EB050291B2321990B25A4600F0AA
:1044E0009BFA09E0D34507D008EB050291B23219D7
:1044F00090B2524600F090FA601CC4B2082CD9DB8E
:10450000002426E007EB870000EB4710544901EB3D
:104510004000801C05EB4501491C405C8021214185
:10452000084209D008EB050291B23219083290B264
:104530005A4600F071FA0AE0D34508D008EB0502AC
:1045400091B23219083290B2524600F065FA601CFE
:10455000C4B2082CD6DB002427E007EB870000EB71
:1045600047103F4901EB4000801C05EB4501891CC9
:10457000405C8021214108420AD008EB050291B23B
:104580003219103290B25A4600F046FA0BE013E0AE
:10459000D34508D008EB050291B23219103290B21F
:1045A000524600F039FA601CC4B2082CD5DB681CF6
:1045B000C5B2182DFFF67CAF781C87B2142FFFF61A
:1045C0005EAF09F1020906F1180086B299F8000001
:1045D00000287FF418AFBDE8F09F2DE9F05F074693
:1045E000884692469946002531E000242BE01D497B
:1045F0000A9801EBC01000EB850010F804B000260B
:104600001DE08020304110EA0B0F0AD008EB0502B4
:1046100091B207EBC402324490B2524600F0FCF96A
:104620000BE0CA4509D008EB050291B207EBC402C2
:10463000324490B24A4600F0EFF9701CC6B2082E20
:10464000DFDB601CC4B2042CD1DB681CC5B2202D9A
:10465000CBDBBDE8F09F00004F640008C17100088B
:10466000AB760008406A000808B501210820FCF775
:104670000DFA40F20340ADF8000003208DF802006F
:1046800010208DF803006946F748FBF729FF012148
:104690000420FCF7FBF9B020ADF8000003208DF8F2
:1046A000020010208DF803006946F048FBF718FF60
:1046B00008BD0021082115E010F0800F04D08022F1
:1046C000EA4B10331A6003E08022E84B14331A607F
:1046D0002022E64B14331A601B1F1A604206100E8C
:1046E0004A1ED1B20029E7DC704710B504461020FD
:1046F000DE49143108600220DB491431086020468D
:10470000FFF7D7FF1020D9491031086010BD10B550
:1047100004461020D549143108600220D2491031D6
:1047200008602046FFF7C5FF1020D049103108600F
:1047300010BD10B504461020CC4914310860022089
:10474000C949103108602012FFF7B3FFE0B2FFF74C
:10475000B0FF1020C5491031086010BD30B50546C6
:104760000C462846FFF7C1FF2046FFF7D0FF30BDBB
:1047700010B50120BC49143108606420FFF799FA94
:104780000120B949103108603220FFF792FA10BDBC
:1047900010B5FFF769FFFFF7EBFF1120FFF7A5FF4B
:1047A0007820FFF786FAB120FFF79FFF0120FFF77F
:1047B000AEFF2C20FFF7ABFF2D20FFF7A8FFB220A4
:1047C000FFF793FF0120FFF7A2FF2C20FFF79FFFC9
:1047D0002D20FFF79CFFB320FFF787FF0120FFF795
:1047E00096FF2C20FFF793FF2D20FFF790FF01206D
:1047F000FFF78DFF2C20FFF78AFF2D20FFF787FFA3
:10480000B420FFF772FF0720FFF781FFC020FFF7FA
:104810006CFFA220FFF77BFF0220FFF778FF8420C8
:10482000FFF775FFC120FFF760FFC520FFF76FFF9F
:10483000C220FFF75AFF0A20FFF769FF0020FFF7A9
:1048400066FFC320FFF751FF8A20FFF760FF2A2091
:10485000FFF75DFFC420FFF748FF8A20FFF757FFEF
:10486000EE20FFF754FFC520FFF73FFF0E20FFF7B4
:104870004EFF3620FFF739FFC020FFF748FFE0204A
:10488000FFF733FF0F20FFF742FF1A20FFF73FFF2C
:104890000F20FFF73CFF1820FFF739FF2F20FFF70D
:1048A00036FF2820FFF733FF2020FFF730FF2220BC
:1048B000FFF72DFF1F20FFF72AFF1B20FFF727FF21
:1048C0002320FFF724FF3720FFF721FF0020FFF709
:1048D0001EFF0720FFF71BFF0220FFF718FF102025
:1048E000FFF715FFE120FFF700FF0F20FFF70FFF95
:1048F0001B20FFF70CFF0F20FFF709FF1720FFF722
:1049000006FF3320FFF703FF2C20FFF700FF2920CD
:10491000FFF7FDFE2E20FFF7FAFE3020FFF7F7FE2F
:104920003020FFF7F4FE3920FFF7F1FE3F20FFF7BC
:10493000EEFE0020FFF7EBFE0720FFF7E8FE032066
:10494000FFF7E5FE1020FFF7E2FE2A20FFF7CDFE7D
:104950000020FFF7DCFE0020FFF7D9FE0020FFF764
:10496000D6FE7F20FFF7D3FE2B20FFF7BEFE0020F0
:10497000FFF7CDFE0020FFF7CAFE0020FFF7C7FEBD
:104980009F20FFF7C4FEF020FFF7AFFE0120FFF7E6
:10499000BEFEF620FFF7A9FE0020FFF7B8FE3A2082
:1049A000FFF7A3FE0520FFF7B2FE2920FFF79DFECB
:1049B00010BDF0B505460C4616461F462A20FFF7E7
:1049C00094FE0020FFF7A3FEE8B2FFF7A0FE002050
:1049D000FFF79DFEB11CC8B2FFF799FE2B20FFF731
:1049E00084FE0020FFF793FEE0B2FFF790FE002068
:1049F000FFF78DFE791CC8B2FFF789FE2C20FFF768
:104A000074FEF0BD30B504460D462B4622462946BD
:104A10002046FFF7CEFF30BDF0B504460D461646E2
:104A2000032030B1012810D0022821D0032840D122
:104A300030E0681C83B2601C82B229462046FFF732
:104A4000B8FF3046FFF775FE34E0C4F1A10083B231
:104A5000681C82B2C4F1A00081B22846FFF7A9FF0A
:104A60003046FFF766FE25E0000C014000080140DB
:104A7000C5F1A107BBB2C4F18107BAB2C5F1A00765
:104A8000B9B2C4F18007B8B2FFF793FF3046FFF721
:104A900050FE0FE0611C8BB2C5F181018AB2C5F1F5
:104AA000800188B22146FFF784FF3046FFF741FEC0
:104AB00000E000BF00BFF0BD60B505460E463146C0
:104AC0002846FFF79FFFE0B2FFF721FE204660BDBA
:104AD00070B506469F237F2200210846FFF769FF35
:104AE0002C20FFF702FE002408E0002503E03046FA
:104AF000FFF71FFE6D1CA02DF9D3641C802CF4D38E
:104B000070BD000038B505460C46012D02D0102DB1
:104B100030D117E054B9F9A04EF67D734FF47842C6
:104B2000002100901020FFF7A0FB0AE0012C08D123
:104B3000F5A04EF67D731F22002100901020FFF794
:104B400094FB1EE054B9EDA04EF67D734FF478420D
:104B5000002100901020FFF788FB0AE0012C08D10B
:104B6000E9A04EF67D731F22002100901020FFF770
:104B70007CFB06E04EF67D7200210846FFF74CFFF5
:104B800000BF00BF38BD38B505460C46032D3AD0EE
:104B900004DC012D07D0022D7ED11CE0042D4AD06B
:104BA000102DF9D15FE054B9D4A04EF67D734FF4C7
:104BB0007842002100901020FFF757FB0AE0012CFB
:104BC00008D1D1A04EF67D731F2200210090102045
:104BD000FFF74BFBA1E054B9CEA04EF67D734FF426
:104BE0007842142100901020FFF73FFB0AE0012CCF
:104BF00008D1CBA04EF67D731F2214210090102007
:104C0000FFF733FB89E054B9C8A04EF67D734FF42B
:104C10007842282100901020FFF727FB0AE0012CA2
:104C200008D1C5A04EF67D731F22282100901020C8
:104C3000FFF71BFB71E054B9C2A04EF67D734FF431
:104C400078423C2100901020FFF70FFB0AE0012C76
:104C500008D1BFA04EF67D731F223C21009010208A
:104C6000FFF703FB59E054BBA4A04EF67D734FF44D
:104C70007842002100901020FFF7F7FAA5A04EF629
:104C80007D734FF47842142100901020FFF7EDFA65
:104C9000A6A04EF67D7300E038E04FF4784228215C
:104CA00000901020FFF7E1FAA6A04EF67D734FF4B6
:104CB00078423C2100901020FFF7D7FA25E0012C24
:104CC00023D191A04EF67D731F2200210090102069
:104CD000FFF7CBFA92A04EF67D731F2214210090AD
:104CE0001020FFF7C2FA94A04EF67D731F222821F0
:104CF00000901020FFF7B9FA95A04EF67D731F22A1
:104D00003C2100901020FFF7B0FA06E04EF67D72CD
:104D100000210846FFF780FE00BF00BF38BD38B550
:104D200005460C46012D06D0052D1CD0062D32D08F
:104D3000102D7DD147E054B970A04EF67D734FF42D
:104D40007842002100901020FFF78FFA0AE0012C32
:104D500008D16DA04EF67D731F2200210090102017
:104D6000FFF783FA76E054B97CA04EF67D734FF4DA
:104D70007842142100901020FFF777FA0AE0012C06
:104D800008D179A04EF67D731F22142100901020C7
:104D9000FFF76BFA5EE054B976A04EF67D734FF4E0
:104DA0007842282100901020FFF75FFA0AE0012CDA
:104DB00008D173A04EF67D731F2228210090102089
:104DC000FFF753FA46E0F4B94CA04EF67D734FF46A
:104DD0007842002100901020FFF747FA5FA04EF6BE
:104DE0007D734FF47842142100901020FFF73DFAB4
:104DF00060A04EF67D734FF4784228210090102079
:104E0000FFF733FA1EE0012C1CD13FA04EF67D7354
:104E10001F22002100901020FFF727FA52A04EF623
:104E20007D731F22142100901020FFF71EFA00E06E
:104E300009E053A04EF67D731F2228210090102018
:104E4000FFF713FA06E04EF67D7200210846FFF7E1
:104E5000E3FD00BF00BF38BD38B505460C46072D41
:104E600004D0082D1AD0102D47D12FE054B947A0F7
:104E70004EF67D734FF47842002100901020FFF72A
:104E8000F4F90AE0012C08D143A04EF67D731F22ED
:104E9000002100901020FFF7E8F9ADE054B941A0DF
:104EA0004EF67D734FF47842142100901020FFF7E6
:104EB000DCF90AE0012C08D13DA04EF67D731F22DB
:104EC000142100901020FFF7D0F995E0A4B92FA08D
:104ED0004EF67D734FF47842002100901020FFF7CA
:104EE000C4F930A04EF67D734FF47842142100903F
:104EF0001020FFF7BAF977E060E076E0CFC2CAD3BE
:104F00003A4641494C000000CFC2CAD33A504153FF
:104F100053000000C5F6D7B23A4641494C000000A4
:104F2000C5F6D7B23A50415353000000C2EBC5CC8E
:104F30003A4641494C000000C2EBC5CC3A504153BF
:104F400053000000C0EBB5D83A4641494C00000080
:104F5000C0EBB5D83A50415353000000D2FDB5BC68
:104F60003A4641494C000000D2FDB5BC3A5041538D
:104F700053000000B0B4BCFC3A4641494C0000006C
:104F8000B0B4BCFC3A50415353000000BBD2B3BE96
:104F90003A4641494C000000BBD2B3BE3A5041539F
:104FA00053000000BBF4B6FB3A4641494C000000F8
:104FB000BBF4B6FB3A50415353000000012C13D10F
:104FC000AFF22C004EF67D731F22002100901020BE
:104FD000FFF74BF9AFF228004EF67D731F22142124
:104FE00000901020FFF741F906E04EF67D72002197
:104FF0000846FFF711FD00BF00BF38BD38B50546B4
:105000000C46A5F1090008287ED2DFE800F0041C58
:10501000344CB7B7B76454B9E0A04EF67D734FF483
:105020007842002100901020FFF71FF90AE0012CC0
:1050300008D1DDA04EF67D731F22002100901020C4
:10504000FFF713F9A1E054B9DAA04EF67D734FF4DF
:105050007842142100901020FFF707F90AE0012C94
:1050600008D1D7A04EF67D731F2214210090102086
:10507000FFF7FBF889E054B9D4A04EF67D734FF4E6
:105080007842282100901020FFF7EFF80AE0012C69
:1050900008D1D1A04EF67D731F2228210090102048
:1050A000FFF7E3F871E054B9CEA04EF67D734FF4EC
:1050B00078423C2100901020FFF7D7F80AE0012C3D
:1050C00008D1CBA04EF67D731F223C21009010200A
:1050D000FFF7CBF859E054BBB0A04EF67D734FF408
:1050E0007842002100901020FFF7BFF8B1A04EF6E3
:1050F0007D734FF47842142100901020FFF7B5F82B
:10510000B2A04EF67D7300E038E04FF478422821DB
:1051100000901020FFF7A9F8B2A04EF67D734FF46F
:1051200078423C2100901020FFF79FF825E0012CE9
:1051300023D19DA04EF67D731F22002100901020E8
:10514000FFF793F89EA04EF67D731F221421009066
:105150001020FFF78AF8A0A04EF67D731F222821A9
:1051600000901020FFF781F8A1A04EF67D731F225A
:105170003C2100901020FFF778F806E04EF67D7293
:1051800000210846FFF748FC00BF00BF38BD38B516
:1051900005460C460E2D22D004DC052D4FD00D2DDA
:1051A0007ED104E00F2D32D0102DF9D161E054B939
:1051B00092A04EF67D734FF47842002100901020AB
:1051C000FFF753F80AE0012C08D18FA04EF67D734B
:1051D0001F22002100901020FFF747F8A5E054B9E6
:1051E0008CA04EF67D734FF478421421009010206D
:1051F000FFF73BF80AE0012C08D189A04EF67D7339
:105200001F22142100901020FFF72FF88DE054B9D1
:1052100086A04EF67D734FF478422821009010202E
:10522000FFF723F80AE0012C08D183A04EF67D7326
:105230001F22282100901020FFF717F875E05CB9B5
:10524000AFF2E8204EF67D734FF478423C21009097
:105250001020FFF70AF80BE0012C09D1AFF2F8207B
:105260004EF67D731F223C2100901020FEF7FDFFBB
:105270005BE05CBB61A04EF67D734FF47842002189
:1052800000901020FEF7F1FF62A04EF67D734FF400
:105290007842142100901020FEF7E7FF63A000E0A1
:1052A0003CE04EF67D734FF47842282100901020A8
:1052B000FEF7DBFFAFF25C304EF67D734FF47842C1
:1052C0003C2100901020FEF7D0FF26E0012C24D1D5
:1052D0004DA04EF67D731F22002100901020FEF796
:1052E000C4FF4FA04EF67D731F22142100901020A2
:1052F000FEF7BBFF50A04EF67D731F2228210090C1
:105300001020FEF7B2FFAFF2A0304EF67D731F22E1
:105310003C2100901020FEF7A8FF06E04EF67D72BB
:1053200000210846FFF778FB00BF00BF38BDF8B585
:1053300004460D46164643A04EF67D731A463821A4
:1053400000901020FEF791FF072C23D2DFE804F035
:105350002204090E13181D0031462846FFF7D2FB20
:1053600019E031462846FFF70EFC14E03146284686
:10537000FFF7D5FC0FE031462846FFF76DFD0AE048
:1053800031462846FFF73AFE05E031462846FFF74A
:10539000FEFE00E000BF00BFF8BD0000D6B8CABEE8
:1053A000B5C63A4641494C00D6B8CABEB5C63A5011
:1053B00041535300D2FDB5BC413A4641494C00002F
:1053C000D2FDB5BC413A504153530000D2FDB5BCAB
:1053D000423A4641494C0000D2FDB5BC423A5041E8
:1053E00053530000B7C0D7B23A4641494C000000C1
:1053F000B7C0D7B23A504153530000003435B6C855
:105400003A4641494C0000003435B6C83A50415341
:1054100053000000D1D8B1DF413A4641494C000069
:10542000D1D8B1DF413A504153530000D1D8B1DF58
:10543000423A4641494C0000D1D8B1DF423A50418E
:1054400053530000BCECB2E2D6D02E2E2E0000004A
:10545000D2B201E000F8012B491EFBD270470022B6
:10546000F6E710B513460A4604461946FFF7F0FF63
:10547000204610BD30B505462A460B4612F8010BF2
:1054800013F8014B08B1A042F8D01CB1002802D09B
:105490006D1CF1E7284630BD10B5044604E00B78DA
:1054A00000F8013B03B1491C521EF8D2204610BD42
:1054B000421C10F8011B0029FBD1801A7047CBB2A7
:1054C00003E00178994203D0401C521EF9D200201B
:1054D000704730B505460020034600E05B1C934250
:1054E00005D2EC5CC85C201A01D1002CF6D130BD8D
:1054F00030B50B46014600202022012409E021FAA4
:1055000002F59D4205D303FA02F5491B04FA02F5A0
:105510002844151EA2F10102F1DC30BD2DE9F05F37
:105520000546002092469B46884606468146402412
:105530001BE0284641464746224600F0F6F953460E
:105540005A46C01A914110D311461846224600F01F
:10555000DDF92D1A67EB01084F4622460120002194
:1055600000F0D4F917EB00094E41201EA4F101040C
:10557000DFDC484631462A464346BDE8F09F2DE928
:10558000FE4F804681EA0300C00F0C46009021F0D8
:10559000004123F00045B8EB0200A94105D2404686
:1055A000214690461C460B46024623F0004010431D
:1055B00004D14046214603B0BDE8F08F270DC7F364
:1055C0000A00C3F30A510290401A0190402866DA9B
:1055D000C3F3130040F4801B0098924620B10023CF
:1055E000D2EB030A63EB0B0B01985946C0F1400262
:1055F000504600F08BF906460D4650465946019A32
:1056000000F0A3F910EB08006141002487EA115271
:1056100084EAE7731A433BD0009A3AB3019A012A0D
:105620004FEA075210DC001B61EB02014FF0004211
:1056300002EA0752CDE90042001C41F580113246D2
:105640002B4600F0A1F9B6E7001B61EB0201001C3C
:1056500041F5801300185B412018A2F5001747EBB5
:10566000030140EAD570B6196D4111E06D084FEAAB
:10567000360645EAC0754FEA0752001B61EB02018E
:10568000001C41F5801149084FEA300000195141D2
:1056900032462B4603B0BDE8F04F00F068B90098E1
:1056A000012240000023D0EB020263EBE07300987C
:1056B00021464FEAE074B8EB000061EB0401E9E732
:1056C00083F000435BE781F0004158E72DE9FE4F8E
:1056D00081EA030404F0004421F0004100944FF0FB
:1056E000000B23F0004350EA010402D052EA030405
:1056F00004D10020014603B0BDE8F08FC3F30A5483
:10570000C1F30A552C44A4F2F3340194A0FB0254D3
:10571000C1F3130141F48011C3F3130343F4801365
:1057200001FB024400FB034E840A970A44EA8154B9
:1057300047EA8357A4FB076802958D0A05FB078596
:105740004FEA932C04FB0C542705029D4FEA0658A0
:1057500047EA1637B5EB08056EEB070C870E920E7D
:1057600047EA811742EA8312A7FB0201B6EB0B015D
:1057700064EB00042B0D43EA0C335E1844EB1C5021
:10578000DA465146E7FB0201C5F313044FEA0B3337
:1057900043EA14534FEA0432019C43EA0603A4F19E
:1057A0000C040294009CCDE900B400F0EDF8A2E7EF
:1057B0002DE9F04D81EA030404F0004B21F000458F
:1057C00014464FF0000A23F0004150EA050220D0B1
:1057D00054EA01021DD0C5F30A570246C5F313036C
:1057E000C1F31300C1F30A5640F4801543F480134B
:1057F000A7EB0608101BD64608F2FD3873EB050030
:1058000002D308F1010801E092185B41B8F1000FE2
:1058100003DA00200146BDE8F08D00204FF480112E
:10582000064684460EE0171B73EB050705D3121BD3
:1058300063EB050306434CEA010C49084FEA3000CC
:1058400092185B4150EA0107EDD152EA030012D0F1
:1058500082EA040083EA0501084303D100224FF0E5
:10586000004308E0101BAB4102D20122002302E0FA
:105870006FF0010253101AEB06004CEB085110EBCD
:105880000A0041EB0B01BDE8F04D00F070B8C1F328
:105890000A52C1F3130140F2FF3341F480119A42DE
:1058A00002DA00200146704740F233439A42A2F2E6
:1058B000334202DC524200F038B800F027B8000052
:1058C00030B5002904DB4FF00044404264EB010195
:1058D000002B04DB4FF00044524264EB0303994277
:1058E00008BF904230BD0000064C074D06E0E0685E
:1058F00040F0010394E8070098471034AC42F6D317
:10590000FAF71AFC3C7C00085C7C0008202A04DBC7
:10591000203A00FA02F1002070479140C2F12003C2
:1059200020FA03F3194390407047202A04DB203A01
:1059300021FA02F00021704721FA02F3D040C2F1AF
:1059400020029140084319467047202A06DBCB17F6
:10595000203A41FA02F043EAE07306E041FA02F32A
:10596000D040C2F12002914008431946704710B55B
:10597000002B08DA401C41F1000192185B411A43E8
:1059800001D120F0010010BD2DE9F04D92469B465B
:1059900011B1B1FA81F202E0B0FA80F22032904601
:1059A000FFF7B4FF04460F4640EA0A0041EA0B0144
:1059B00053465A46084303D120463946BDE8F08D88
:1059C000114653EA010015D0C8F140025046FFF7D6
:1059D000ACFF05460E46504659464246FFF796FF35
:1059E000084301D0012000E00020054346EAE076AC
:1059F0002C4337430A984FEA4453A0EB08004FEA80
:105A0000D4240A304FF0000244EA47544FEAD72525
:105A100002D500200146D1E7010510196941DDE9F1
:105A2000084500196941BDE8F04DA0E70FB4054BEA
:105A300010B503A9044A029800F0ECF810BC5DF818
:105A400014FB0000852600084C0000200FB41CB594
:105A50000A46521ECDE9000207A9054B6A46069880
:105A600000F0D8F8009A002111701CBC5DF814FBFE
:105A70005B6300087CB5491E1C461546CDE9000154
:105A8000044B6A462146284600F0C4F8009A0021DB
:105A900011707CBD5B63000802E008C8121F08C1DA
:105AA000002AFAD170477047002001E001C1121F9F
:105AB000002AFBD1704700002DE9FF5FDDE90220DD
:105AC000010DDDF838B0024310D10F9801244CA22B
:105AD000012808D0002100980F9BC0E90021C0E9EF
